{
  "contractName": "Rideshare",
  "abi": [
    {
      "inputs": [
        {
          "name": "_payer",
          "type": "address"
        }
      ],
      "payable": false,
      "stateMutability": "nonpayable",
      "type": "constructor"
    },
    {
      "constant": false,
      "inputs": [
        {
          "name": "reg",
          "type": "string"
        },
        {
          "name": "start_date",
          "type": "uint256"
        },
        {
          "name": "end_date",
          "type": "uint256"
        },
        {
          "name": "start_time",
          "type": "uint256"
        },
        {
          "name": "end_time",
          "type": "uint256"
        }
      ],
      "name": "hire",
      "outputs": [],
      "payable": true,
      "stateMutability": "payable",
      "type": "function"
    }
  ],
  "bytecode": "0x608060405234801561001057600080fd5b5060405160208061036a8339810180604052602081101561003057600080fd5b8101908080519060200190929190505050336000806101000a81548173ffffffffffffffffffffffffffffffffffffffff021916908373ffffffffffffffffffffffffffffffffffffffff16021790555080600160006101000a81548173ffffffffffffffffffffffffffffffffffffffff021916908373ffffffffffffffffffffffffffffffffffffffff16021790555050610298806100d26000396000f3fe608060405260043610610041576000357c0100000000000000000000000000000000000000000000000000000000900463ffffffff16806370a7b9c714610046575b600080fd5b610127600480360360a081101561005c57600080fd5b810190808035906020019064010000000081111561007957600080fd5b82018360208201111561008b57600080fd5b803590602001918460018302840111640100000000831117156100ad57600080fd5b91908080601f016020809104026020016040519081016040528093929190818152602001838380828437600081840152601f19601f82011690508083019250505050505050919291929080359060200190929190803590602001909291908035906020019092919080359060200190929190505050610129565b005b60046000815480929190600101919050555060a0604051908101604052808681526020018581526020018481526020018381526020018281525060026000600454815260200190815260200160002060008201518160000190805190602001906101949291906101c7565b50602082015181600101556040820151816002015560608201518160030155608082015181600401559050505050505050565b828054600181600116156101000203166002900490600052602060002090601f016020900481019282601f1061020857805160ff1916838001178555610236565b82800160010185558215610236579182015b8281111561023557825182559160200191906001019061021a565b5b5090506102439190610247565b5090565b61026991905b8082111561026557600081600090555060010161024d565b5090565b9056fea165627a7a7230582085daa62f25aff0f4d7861b8476bb987fd0edc2771f57d4e37a5dcd40f90f82d20029",
  "source": "pragma solidity ^0.5.0;\r\n\r\ncontract Rideshare {\r\n    address payee; // owner to receive payment\r\n    address payer; // user to hire a car\r\n\r\n    // struct Voter { // Struct\r\n    //     uint weight;\r\n    //     bool voted;\r\n    //     address delegate;\r\n    //     uint vote;\r\n    // }\r\n\r\n    struct Vehicle {\r\n        string make;\r\n        string model;\r\n        string reg;\r\n        uint price;\r\n    }\r\n\r\n    struct Owner {\r\n        address addr;\r\n        string name;\r\n    }\r\n\r\n    struct Driver {\r\n        address addr;\r\n        string name;\r\n    }\r\n\r\n    struct Rental {\r\n        // uint rentalno;\r\n        string reg;\r\n        uint start_date;\r\n        uint end_date;\r\n        uint start_time;\r\n        uint end_time;\r\n    }\r\n\r\n    // mapping to store the rentals\r\n    mapping (uint => Rental) rentals;\r\n\r\n    // mapping to store the vehicles\r\n    mapping (uint => Vehicle) vehicles;\r\n\r\n    // sequence number of rentals\r\n    uint rentalseq;\r\n\r\n\r\n    constructor (address _payer) public {\r\n        payee = msg.sender;\r\n        payer = _payer;\r\n    }\r\n\r\n    function hire(\r\n        string memory reg, \r\n        uint start_date, \r\n        uint end_date, \r\n        uint start_time, \r\n        uint end_time\r\n    ) public payable  {\r\n        rentalseq++;\r\n\r\n        rentals[rentalseq] = Rental(reg, start_date, end_date, start_time, end_time);\r\n    }\r\n\r\n    // event transaction(address buyer, string car)  {\r\n\r\n    // }\r\n\r\n\r\n    // function payment (address _payee) public {\r\n    //     payee == msg.sender;\r\n    // }\r\n\r\n\r\n}",
  "sourcePath": "C:/Users/jayal/Projects/etherride/contracts/Rideshare.sol",
  "compiler": {
    "name": "solc",
    "version": "0.5.0+commit.1d4f565a.Emscripten.clang"
  },
  "schemaVersion": "3.0.0",
  "updatedAt": "2019-01-29T23:43:42.665Z",
  "devdoc": {
    "methods": {}
  },
  "userdoc": {
    "methods": {}
  }
}